:100000000C945D000C9485000C9485000C94850084
:100010000C9485000C9485000C9485000C9485004C
:100020000C9485000C9485000C9485000C9485003C
:100030000C9485000C9485000C9485000C9485002C
:100040000C94EF010C9485000C9485000C948500B1
:100050000C9485000C9485000C9485000C9485000C
:100060000C9485000C94850000000008000201003B
:100070000003040700000000000000000000000072
:10008000250028002B0000000000240027002A0083
:10009000040404040404040402020202020203032E
:1000A0000303030301020408102040800102040836
:1000B0001020010204081020F50311241FBECFEF09
:1000C000D8E0DEBFCDBF21E0A4E0B1E001C01D92C9
:1000D000AC33B207E1F711E0A0E0B1E0EEE1F8E007
:1000E00002C005900D92A430B107D9F710E0CDE51C
:1000F000D0E004C02197FE010E940704CC35D1074F
:10010000C9F70E9439020C940D040C94000090E091
:10011000FC01EC55FF4F2491FC01E057FF4F849107
:10012000882399F090E0880F991FFC01EA57FF4F50
:10013000A591B491FC01E458FF4F859194918FB73C
:10014000F894EC91E22BEC938FBF089590E0FC01C2
:10015000E859FF4F3491FC01EC55FF4F2491FC010D
:10016000E057FF4FE491EE2309F43BC0332339F10C
:10017000333091F038F43130A9F0323001F584B5E4
:100180008F7D12C0373091F03830A1F03430B9F49F
:10019000809180008F7D03C0809180008F77809355
:1001A00080000DC084B58F7784BD09C08091B000F8
:1001B0008F7703C08091B0008F7D8093B000F0E016
:1001C000EE0FFF1FE458FF4FA591B4918FB7F8943D
:1001D000EC91611103C020952E2301C02E2B2C938E
:1001E0008FBF0895CF93DF93C82FD0E0809129016E
:1001F000D81758F4ED2FF0E0EF5EFE4F6091140138
:1002000087850E94A600DF5FF1CFEC2FF0E0EF5E64
:10021000FE4F609112018781DF91CF910C94A6006F
:100220001F93CF93DF93C82FD0E0CF5EDE4F609156
:1002300011018F810E94A60010E06A968091290129
:100240001817A8F4E12FF0E0888190E0012E02C099
:10025000959587950A94E2F780FF07C0EF5EFE4F01
:100260006091130187850E94A6001F5FE7CFDF9191
:10027000CF911F910895CF93DF93C82FD0E0809145
:100280002801D81758F4ED2FF0E0EF5EFE4F609193
:10029000120187810E94A600DF5FF1CFEC2FF0E012
:1002A000EF5EFE4F609114018785DF91CF910C9432
:1002B000A6000F931F93CF93C82FE82FF0E0EF5EB7
:1002C000FE4F6091130187850E94A60001E010E0B7
:1002D00002C0000F111FCA95E2F7C0E0809128010B
:1002E000C81788F4EC2FF0E0EF5EFE4F828D90E0AF
:1002F00080239123892B29F06091110187810E942D
:10030000A600CF5FEBCFCF911F910F910895823060
:10031000910538F0880F991F880F991F059701974D
:10032000F1F708953FB7F8948091090190910A017F
:10033000A0910B01B0910C0126B5A89B05C02F3FE1
:1003400019F00196A11DB11D3FBFBA2FA92F982FFB
:100350008827820F911DA11DB11DBC01CD0142E076
:10036000660F771F881F991F4A95D1F708958F92BE
:100370009F92AF92BF92CF92DF92EF92FF920E9434
:1003800092014B015C0188EEC82E83E0D82EE12C4F
:10039000F12C0E949201DC01CB0188199909AA096C
:1003A000BB09883E9340A105B10558F021E0C21A6F
:1003B000D108E108F10888EE880E83E0981EA11CA0
:1003C000B11CC114D104E104F10419F7FF90EF90BE
:1003D000DF90CF90BF90AF909F908F9008951F9225
:1003E0000F920FB60F9211242F933F938F939F93E9
:1003F000AF93BF938091050190910601A0910701F1
:10040000B09108013091040123E0230F2D3720F42F
:100410000196A11DB11D05C026E8230F0296A11D5E
:10042000B11D209304018093050190930601A093D0
:100430000701B09308018091090190910A01A091F0
:100440000B01B0910C010196A11DB11D8093090112
:1004500090930A01A0930B01B0930C01BF91AF914F
:100460009F918F913F912F910F900FBE0F901F90F2
:100470001895789484B5826084BD84B5816084BD0C
:1004800085B5826085BD85B5816085BD80916E0032
:10049000816080936E001092810080918100826063
:1004A00080938100809181008160809381008091A0
:1004B00080008160809380008091B100846080938F
:1004C000B1008091B00081608093B00080917A008B
:1004D000846080937A0080917A00826080937A00B1
:1004E00080917A00816080937A0080917A008068A0
:1004F00080937A001092C10082E00E94870083E01E
:100500000E94870084E00E94870085E00E948700A7
:100510008AE00E9487008BE00E9487008CE00E94A6
:1005200087008DE00E94870000E010E080910F01BD
:10053000909110010196883E23E0920729F0909354
:10054000100180930F010DC01092100110920F0145
:1005500080910D0190910E01019690930E01809370
:100560000D0180910D0190910E018133910509F4E7
:100570003FC0ECF4C09709F07CC060E082E00E94CC
:10058000A60061E083E00E94A60061E084E00E9492
:10059000A60061E085E00E94A60061E08AE00E947A
:1005A000A60060E08BE00E94A60060E05DC08233A0
:1005B000910509F440C0C39709F05BC060E085E095
:1005C0000E94A60061E082E00E94A60061E083E054
:1005D0000E94A60061E084E00E94A60060E08AE03C
:1005E0000E94A60060E08BE00E94A60061E019C0B6
:1005F00060E083E00E94A60061E082E00E94A60025
:1006000061E084E00E94A60061E085E00E94A6000F
:1006100060E08AE00E94A60060E08BE00E94A600F5
:1006200060E08CE00E94A60061E08DE00E94A600E0
:100630000E94B70122C060E084E00E94A60061E051
:1006400082E00E94A60061E083E00E94A60061E0D3
:1006500085E00E94A60060E08AE00E94A60060E0BB
:100660008BE00E94A60061E08CE00E94A60060E0A2
:10067000DCCF10920E0110920D01809116018111B4
:1006800075C00E94920120913B01C0903301D0902F
:100690003401E0903501F09036014B015C018C187B
:1006A0009D08AE08BF08222329F0C0903901D090E0
:1006B0003A0104C0C0903701D09038010D2C000CD5
:1006C000EE08FF088C149D04AE04BF0408F486C035
:1006D0006093330170933401809335019093360118
:1006E00090911501911123C0222319F010923B0122
:1006F0000EC080912A010E943B01809139019091A6
:100700003A01892B21F081E080933B0167C0809101
:100710002A018F5F80932A0190912901891710F097
:1007200010922A0180912A010E94590157C0222368
:1007300019F010923B010AC080912A010E94F20038
:100740008091390190913A01892BE9F680912A0133
:100750008F5F80932A0190912801891710F01092E1
:100760002A0180912A010E94100138C08091150150
:10077000C0E081112FC080912901C81778F58C2F16
:100780000E94590180913701909138010E948701A0
:100790008C2F0E943B018091390190913A01009782
:1007A00011F00E948701CF5FE6CF8C2F0E941001CD
:1007B00080913701909138010E9487018C2F0E940F
:1007C000F2008091390190913A01009711F00E9456
:1007D0008701CF5F80912801C81738F301151105F3
:1007E00009F4A4CE0E940000A1CEE1E1F1E080ED89
:1007F00097E097A386A311A610A612A6178A118EBA
:1008000012A213A214A215A2148215820895EE0F4B
:0E081000FF1F0590F491E02D0994F894FFCF9E
:04081E0001000000D5
:00000001FF
